:020000040800F2
:100000000050002079310008450A0008470A00081E
:10001000490A00084B0A00084D0A000800000000C9
:100020000000000000000000000000004F0A00086F
:10003000510A000800000000530A0008550A000891
:10004000C1310008C1310008C1310008C1310008C8
:10005000C1310008C1310008C1310008C1310008B8
:10006000C1310008C1310008C13100085D0A000833
:100070006D0A0008C13100087D0A00088D0A0008D9
:100080009D0A0008AD0A0008C1310008C13100080E
:10009000C1310008C1310008C1310008C131000878
:1000A000C1310008C1310008C1310008BD0A000893
:1000B000CD0A0008DD0A0008ED0A0008C131000879
:1000C000C1310008C1310008C1310008C131000848
:1000D000C1310008FD0A0008C1310008C131000823
:1000E000C1310008C1310008C13100080000000022
:1000F0000000000000000000000000000000000000
:0C01000000000000000000005FF808F1A3
:10010C0010B5054C237833B9044B13B10448AFF345
:10011C0000800123237010BD740400200000000037
:10012C008C33000808B5034B1BB103490348AFF3EC
:10013C00008008BD00000000780400208C3300080B
:10014C00844641EA000313F0030349D1403A23D318
:10015C000B6803604B6843608B688360CB68C3603B
:10016C000B6903614B6943618B698361CB69C36123
:10017C000B6A03624B6A43628B6A8362CB6AC3620B
:10018C000B6B03634B6B43638B6B8363CB6BC363F3
:10019C0040304031403ADBD230320BD30B68036035
:1001AC004B6843608B688360CB68C3601030103140
:1001BC00103AF3D20C3205D351F8043B40F8043B0F
:1001CC00043AF9D2043208D0D2071CBF11F8013B13
:1001DC0000F8013B01D30B8803806046704700BFD9
:1001EC00082A13D38B07B1D010F00303AED0C3F1A0
:1001FC000403D21ADB071CBF11F8013B00F8013BCA
:10020C00A4D331F8023B20F8023B9FE7043AD9D340
:10021C00013A11F8013B00F8013BF9D20B7803705D
:10022C004B7843708B788370604670470023172B94
:10023C0017D810B408E0C3F117020A4915248C54DE
:10024C000133DBB2172B0AD820FA03F212F0010F9C
:10025C00F1D0C3F11702034934248C54F0E710BCDD
:10026C0070477047B804002008B50138052813D82A
:10027C00DFE800F003154D5F273A374B1B88002B46
:10028C00FBD1012909D0354A18230021344802F04A
:10029C0001FB314B1E221A8008BD324AF4E72E4B6B
:1002AC005B88002BFBD1012909D02C4A18230C2187
:1002BC002B4802F0EFFA284B1E225A80ECE72A4A10
:1002CC00F4E7254B9B88002BFBD101290AD0234A4C
:1002DC0018230021254802F0DDFA1F4B4FF48072E1
:1002EC009A80D9E7224AF3E71B4BDB88002BFBD122
:1002FC0001290AD0194A182304211C4802F0CAFA11
:10030C00154B4FF48072DA80C6E71A4AF3E7124BAA
:10031C001B89002BFBD1012909D0104A1823082175
:10032C00124802F0B7FA0C4B1E221A81B4E7124A9B
:10033C00F4E7094B5B89002BFBD1012909D0074A53
:10034C00182300210D4802F0A5FA034B1E225A81F6
:10035C00A2E70B4AF4E700BF90040020A0040020A1
:10036C00CC1900204017002058170020141A002028
:10037C000817002024170020D01600205C1A00203B
:10038C00E81600202DE9F04186468C4617460024DD
:10039C000FE004EB440807EBC806114D0FCD47F8EE
:1003AC0038007160B260F36003CD3061716101346B
:1003BC00A4B2644512D21EF80430002BE9D004EB31
:1003CC00440807EBC806074D0FCD47F8380071609D
:1003DC00B260F36003CD30617161E8E7BDE8F08194
:1003EC00A0040020B8040020F8B501210A2000F078
:1003FC007BFA2D4B18602D4A002313815381938077
:10040C00D3805380138006E015222949CA54294908
:10041C00CA540133DBB2172BF6D94FF44850FFF70F
:10042C0005FF254A254B1A60254D02F510632B60FC
:10043C00244C30212046FFF7A5FF2A6830212046A6
:10044C00FFF7A0FF1A4D204E2C460FCC0FC694E898
:10045C00030086E803001D4E2F460FCF0FC694E80D
:10046C00030086E803001A4E2F460FCF0FC694E800
:10047C00030086E80300174E2F460FCF0FC694E8F3
:10048C00030086E80300144E2F460FCF0FC694E8E6
:10049C00030086E80300114E0FCD0FC694E803004D
:1004AC0086E80300F8BD00BF04170020900400206C
:1004BC00B8040020A0040020D00400202017002045
:1004CC003C17002000000020401700205817002087
:1004DC000817002024170020D0160020E816002052
:1004EC0008B5052802D0062811D008BD012903D073
:1004FC000F4B00221A73F8E70D4B1B7B002BF7D127
:10050C000B4B01221A730B4801F078FEEDE7012921
:10051C0003D0074B00225A73E7E7054B5B7B002B9C
:10052C00F7D1034B01225A73024801F067FEDCE756
:10053C0090040020A41A002008B56749674B18687E
:10054C0000F02FFAF8B1644B1B7813F0010F53D164
:10055C0003F0FE03102B16D8DFE803F0161509156F
:10056C0028152315491544152D1536153F00012165
:10057C000846FFF779FE01210520FFF775FE0121E2
:10058C000320FFF771FE08BD00210120FFF76CFE70
:10059C0000210520FFF768FE00210320FFF764FE11
:1005AC00F1E701210846FFF75FFEECE7002101208F
:1005BC00FFF75AFEE7E700210520FFF791FF012125
:1005CC000520FFF751FEDEE700210520FFF788FF2D
:1005DC0000210520FFF748FED5E701210520FFF794
:1005EC007FFFD0E701210320FFF73EFECBE7002180
:1005FC000320FFF739FEC6E703F0FE03102BC2D829
:10060C0001A252F823F000BF7306000893050008FE
:10061C005906000893050008970600089305000882
:10062C008D06000893050008D906000893050008FC
:10063C00CF06000893050008A106000893050008E2
:10064C00B306000893050008C50600080121022026
:10065C00FFF70AFE01210620FFF706FE0121042008
:10066C00FFF702FE8FE700210220FFF7FDFD0021BE
:10067C000620FFF7F9FD00210420FFF7F5FD82E7C6
:10068C0001210220FFF7F0FD7DE700210220FFF79A
:10069C00EBFD78E700210620FFF7E6FD012106209F
:1006AC00FFF7E2FD6FE700210620FFF7DDFD0021DB
:1006BC000620FFF7D9FD66E701210620FFF710FFA2
:1006CC0061E701210420FFF7CFFD5CE70021042046
:1006DC00FFF7CAFD57E700BF0017002004170020E2
:1006EC0000B583B0294B5A6942F001025A615B692B
:1006FC0003F001030193019B2548264B03604FF443
:10070C0080434360402383608023C36000230361E4
:10071C00436183614FF48053C36100F0F7FE90BBDB
:10072C00002211460B2000F083FE0B2000F0B4FEDB
:10073C00002211460C2000F07BFE0C2000F0ACFED9
:10074C00002211460E2000F073FE0E2000F0A4FED5
:10075C00002211460F2000F06BFE0F2000F09CFED3
:10076C0000221146102000F063FE102000F094FED1
:10077C0000221146112000F05BFE112000F08CFECF
:10078C0003B05DF804FB00F01FF8C9E7001002404D
:10079C00701700203000024082B00A4B9A6942F078
:1007AC0020029A619A6902F020020092009A9A69DA
:1007BC0042F004029A619B6903F004030193019BCC
:1007CC0002B070470010024072B6FEE700B591B05F
:1007DC00002309930B930C930193029303930493BB
:1007EC000593012106914FF48032079208930A91E8
:1007FC0002230D930E924FF480130F9306A801F071
:10080C002BF980B90F23019302210291002303934A
:10081C004FF480620492059301A801F061FB20B9AA
:10082C0011B05DF804FBFFF7CFFFFFF7CDFF000021
:10083C0000B583B000F0B2FD00F042F8FFF7C6FF40
:10084C00FFF7AAFFFFF74CFF00F0D0FB00F04AFCCB
:10085C0000F0B0FC00F016FD00F01AFAFFF7C4FD32
:10086C0005E0FFF769FE4FF47A7000F0BBFD124A09
:10087C001378013BDBB21370002BF2D110238DF8EF
:10088C0007300E4C0DF10701206800F061F80C23C5
:10089C008DF807300DF10701206800F059F80E2390
:1008AC008DF807300DF10701206800F051F8024B6C
:1008BC0003221A70D5E700BF300000200417002077
:1008CC0082B06B46002200929A807A228DF8012029
:1008DC0006228DF80320034A93E8030010609180F0
:1008EC0002B07047B417002070B4174B06221A7070
:1008FC0000231D46154AD418D35C63B16378124C9F
:10090C0022781344DBB29A1DD2B2227012F0800FFF
:10091C00EFD0002015E06378C2B29B1ADBB205441D
:10092C0006350A484619063B7370002343550125CA
:10093C00257062706371A170E3702371024B1B7898
:10094C00184470BC704700BF31000020B417002061
:10095C0010F8012C10F8053C9A4220D010B5044632
:10096C0010F8030C14F8042C2044FFF7E9FB14F8DE
:10097C00042C14F8033C1344DBB204F8033C14F8C5
:10098C00051C02FB01F2934202DB002304F8033C3A
:10099C0014F8013C013304F8013C012010BD002087
:1009AC00704710B5044610F8010C00B910BD0B4689
:1009BC0014F8021C14F8042C21441846FFF7C0FB51
:1009CC0014F8013C013B04F8013C14F8042C14F815
:1009DC00023C1344DBB204F8023C14F8051C02FB85
:1009EC0001F2934204DB002304F8023C0120DDE712
:1009FC000120DBE782B00E4B9A6942F001029A614A
:100A0C009A6902F001020092009ADA6942F080526F
:100A1C00DA61DB6903F080530193019B054A53684B
:100A2C0023F0E06343F00073536002B0704700BFE3
:100A3C000010024000000140FEE7FEE7FEE7FEE783
:100A4C00FEE770477047704708B500F0B9FC08BD69
:100A5C0008B5024800F038FE08BD00BF441900205C
:100A6C0008B5024800F030FE08BD00BF3418002065
:100A7C0008B5024800F028FE08BD00BF7818002019
:100A8C0008B5024800F020FE08BD00BFBC180020CD
:100A9C0008B5024800F018FE08BD00BF88190020F8
:100AAC0008B5024800F010FE08BD00BF0019002078
:100ABC0008B5024801F04BFC08BD00BFCC19002062
:100ACC0008B5024801F043FC08BD00BF141A002011
:100ADC0008B5024801F03BFC08BD00BF5C1A0020C1
:100AEC0008B5024801F033FC08BD00BFA41A002071
:100AFC0008B5024802F000FA08BD00BFEC1A00204D
:100B0C007047000008B503682D4A934206D0B3F134
:100B1C00804F1ED02B4A934243D008BD2A4B1B88D2
:100B2C004BB1013B9BB2284A1380002BF5D100211D
:100B3C0001F0CEFFF1E7244B5B88002BEDD0013B9D
:100B4C009BB2214A5380002BE7D10C2101F0C0FF4E
:100B5C00E3E71D4B9B884BB1013B9BB21A4A938038
:100B6C00002BDAD1002101F0B3FFD6E7164BDB885E
:100B7C004BB1013B9BB2144AD380002BCDD1042145
:100B8C0001F0A6FFC9E7104B1B89002BC5D0013B18
:100B9C009BB20D4A1381002BBFD1082101F098FFA5
:100BAC00BBE7094B5B89002BB7D0013B9BB2064AD4
:100BBC005381002BB1D1002101F08AFFADE700BFBA
:100BCC00002C014000040040900400200268284BD7
:100BDC009A4200D0704770B5264B9B89002B42D0AF
:100BEC00244B1B7B1BB9234B5B7BF3B970BD224C95
:100BFC002668224B1D6825601E604FF470723146CA
:100C0C0005F1C000FFF79CFAC02206F5707128466A
:100C1C00FFF796FA174B08229A804FF490632268DC
:100C2C000021174801F036FEDDE7164C2668164BFE
:100C3C001D6825601E604FF47072314605F1C000CE
:100C4C00FFF77EFAC02206F570712846FFF778FA96
:100C5C00084B0822DA804FF490632268042108487C
:100C6C0001F018FEC2E7094801F0FCFABEE700BF2C
:100C7C0000080040900400202017002038000020BD
:100C8C00141A00203C1700203C000020A41A00205D
:100C9C0000B587B00023029303930493059300934C
:100CAC0001931548154A026042F6DF624260836088
:100CBC0040F2DF12C2600361836101F06FFC90B9F6
:100CCC004FF48053029302A90B4801F064FD68B9FC
:100CDC000023009301936946074801F06BFF40B96C
:100CEC0007B05DF804FBFFF76FFDE9E7FFF76CFD5C
:100CFC00EEE7FFF769FDF3E7A41A002000080040B7
:100D0C0010B584B0044603687B4A93420CD0B3F10F
:100D1C00804F50D0794A934200F0AE80784A93428B
:100D2C0000F0D78004B010BD764B9A6942F4006293
:100D3C009A619B6903F400630093009B7248734BA8
:100D4C00036010234360002383608022C2604FF451
:100D5C0080720261436120228261C36100F0D6FB84
:100D6C0018BB694B63625C6269486A4B0360102371
:100D7C004360002383608022C2604FF48072026162
:100D8C00436120228261C36100F0C0FB80B9604BDB
:100D9C0023635C62A3636363002211461B2000F093
:100DAC0047FB1B2000F078FBBCE7FFF70DFDD8E7F5
:100DBC00FFF70AFDEBE703F50433DA6942F00102B1
:100DCC00DA61DB6903F001030193019B5248534B39
:100DDC00036010234360002383608022C2604FF4C1
:100DEC0080720261436120228261C36100F08EFB3C
:100DFC00002838D1484B63625C624948494B036018
:100E0C0010234360002383608022C2604FF4807201
:100E1C000261436120228261C36100F077FB28BB31
:100E2C003F4BA3625C6223633F48404B036010233B
:100E3C004360002383608022C2604FF480720261A1
:100E4C00436120228261C36100F060FB88B9364B9C
:100E5C00E3625C62002211461C2000F0E9FA1C20BF
:100E6C0000F01AFB5EE7FFF7AFFCC3E7FFF7ACFC43
:100E7C00D6E7FFF7A9FCEAE7224BDA6942F0020257
:100E8C00DA61DB6903F002030293029B2848294BC9
:100E9C00036010234360002383608022C2604FF400
:100EAC0080720261436120228261C36100F02EFBDB
:100EBC0060B91F4B63625C62A363002211461D2064
:100ECC0000F0B6FA1D2000F0E7FA2BE7FFF77CFCE8
:100EDC00EFE70C4BDA6942F00402DA61DB6903F0EC
:100EEC0004030393039B002211461E2000F0A0FA7A
:100EFC001E2000F0D1FA15E7002C01400004004040
:100F0C000008004000100240341800201C00024071
:100F1C007818002044000240BC1800205800024001
:100F2C0000190020800002404419002008000240F3
:100F3C00881900206C00024000B589B0002304938E
:100F4C000593069307930368244A934208D0B3F1A0
:100F5C00804F1AD0224A93422CD009B05DF804FB82
:100F6C00204B9A6942F004029A619B6903F00403D6
:100F7C000193019B4FF41063049302230593079391
:100F8C0004A9194800F042FCE7E703F504339A6919
:100F9C0042F004029A619B6903F004030293029BE2
:100FAC000723049302230593079304A90E4800F02A
:100FBC002DFCD2E70B4B9A6942F004029A619B69B3
:100FCC0003F004030393039B402304930223059330
:100FDC00079304A9044800F019FCBEE7002C01405B
:100FEC0000040040001002400008014010B596B00B
:100FFC00002412941394149415941094119409943D
:10100C000A940B940C940D940E940F942022214668
:10101C0001A802F0F5F83148314B0360446084605C
:10102C004723C36004614461846101F0B7FA00286E
:10103C003ED14FF48053129312A9284801F0ABFB18
:10104C00002838D1254801F0D5FA002836D10023E4
:10105C001093119310A9214801F0ACFD002830D158
:10106C006023099300220A920B920C920D920E921D
:10107C000F9209A9194801F01BFB28BB0C2209A9E6
:10108C00164801F015FB10BB002301930293039348
:10109C00049305934FF400520692089301A90F484C
:1010AC0001F0BCFDB0B90D48FFF746FF16B010BDFE
:1010BC00FFF78AFBBDE7FFF787FBC3E7FFF784FB6E
:1010CC00C5E7FFF781FBCBE7FFF77EFBD6E7FFF722
:1010DC007BFBD9E7FFF778FBE5E700BFCC190020D5
:1010EC00002C014000B58FB000230A930B930C9396
:1010FC000D9308930993019302930393049305931F
:10110C00069307932A484FF0804202604360836045
:10111C004722C2600361836101F040FA002831D19B
:10112C004FF480530A930AA9214801F034FB60BBA9
:10113C001F4801F05FFA58BB00230893099308A9D4
:10114C001B4801F037FD30BB602301930022029253
:10115C000392059201A9164801F0AAFAF0B90422EB
:10116C000DEB0201124801F0A3FAD0B9082201A933
:10117C000F4801F09DFAB8B90D48FFF7DDFE0FB02E
:10118C005DF804FBFFF720FBCAE7FFF71DFBCFE779
:10119C00FFF71AFBD0E7FFF717FBD5E7FFF714FBB8
:1011AC00DDE7FFF711FBE1E7FFF70EFBE4E700BF1C
:1011BC00141A002000B58FB000230A930B930C93E4
:1011CC000D9308930993019302930393049305934E
:1011DC00069307931F48204A0260436083604722AE
:1011EC00C2600361836101F0D9F920BB4FF48053D5
:1011FC000A930AA9174801F0CEFAF8B9154801F07C
:10120C00F9F9F0B900230893099308A9114801F0E2
:10121C00D1FCC8B96023019300220292039205927B
:10122C0001A90C4801F044FA88B90A48FFF784FE7A
:10123C000FB05DF804FBFFF7C7FAD7E7FFF7C4FA66
:10124C00DCE7FFF7C1FADDE7FFF7BEFAE2E7FFF7ED
:10125C00BBFAEAE75C1A00200004004010B5064C0B
:10126C002146064B1868FFF773FB01222146044800
:10127C0001F05FFF10BD00BF301B002004170020E1
:10128C00EC1A002008B50D480D4B03604FF4E13308
:10129C00436000238360C36003610C22426183615D
:1012AC00C36101F077FD28B901220649034801F01A
:1012BC0040FF08BDFFF788FAF6E700BFEC1A0020E4
:1012CC0000380140301B002030B587B0002302935A
:1012DC0003930493059302681B4B9A4201D007B009
:1012EC0030BD03F558439A6942F480429A619A6979
:1012FC0002F480420092009A9A6942F004029A61C8
:10130C009B6903F004030193019B4FF40073029358
:10131C0002230393032305930C4D02A9284600F0E6
:10132C0075FA4FF48063029300240394049402A989
:10133C00284600F06BFA22462146252000F078F86A
:10134C00252000F0A9F8CAE7003801400008014048
:10135C0010B504460E4B18784FF47A73B3FBF0F3C8
:10136C000C4A1068B0FBF3F000F0A4F868B90F2C2D
:10137C0001D901200AE0002221464FF0FF3000F095
:10138C0057F8054B1C60002000E0012010BD00BF89
:10139C0040000020340000204400002008B5074A1B
:1013AC00136843F010031360032000F02FF80F2094
:1013BC00FFF7CEFFFFF71EFB002008BD0020024008
:1013CC00034A1168034B1B780B441360704700BF32
:1013DC00341B002040000020014B1868704700BFF0
:1013EC00341B002038B50446FFF7F6FF0546B4F170
:1013FC00FF3F02D0044B1B781C44FFF7EDFF401B52
:10140C00A042FAD338BD00BF40000020074AD36881
:10141C0023F4E0631B041B0C000200F4E0600343A4
:10142C0043F0BF6343F40033D360704700ED00E03A
:10143C0030B4174BDB68C3F30223C3F10704042C4D
:10144C0028BF04241D1D062D18D9033B4FF0FF3572
:10145C0005FA04F421EA0401994005FA03F322EA9F
:10146C000303194300280BDB0901C9B200F16040EA
:10147C0000F5614080F8001330BC70470023E5E7AD
:10148C0000F00F000901C9B2024B1954F4E700BF78
:10149C0000ED00E014ED00E0002807DB00F01F0277
:1014AC00400901239340024A42F82030704700BFA4
:1014BC0000E100E00138B0F1807F0AD2064B5860A1
:1014CC00064AF02182F823100020986007221A6047
:1014DC0070470120704700BF10E000E000ED00E015
:1014EC0070B4066CC56B0124B4406C600468636016
:1014FC004368102B05D0036899600368DA6070BCF0
:10150C00704703689A600368D960F8E760B310B459
:10151C0002460168154B0B441548A0FB03031B093D
:10152C009B001364134BD363022382F821300868A9
:10153C0020F47F5020F03000536894682343D46823
:10154C002343146923435469234394692343D46983
:10155C00234303430B6000209063012382F8213066
:10156C0082F8200010BC704701207047F8FFFDBFC7
:10157C00CDCCCCCC0000024038B5044690F820000D
:10158C00012831D0012084F8200094F82100012892
:10159C0004D0002384F82030022038BD022084F8C7
:1015AC0021000020A0632568286820F00100286035
:1015BC002046FFF795FFE36A5BB12268136843F09E
:1015CC000E0313602268136843F0010313600020BC
:1015DC00E3E72268136823F004031360226813689E
:1015EC0043F00A031360EDE70220D6E790F82130B0
:1015FC00022B06D004238363002380F820300120C3
:10160C0070470268136823F00E03136002681368B6
:10161C0023F001031360036CC16B012202FA03F384
:10162C004B6080F82120002380F82030184670474A
:10163C0008B590F82130022B03D0042383630120DA
:10164C0008BD0268136823F00E0313600268136868
:10165C0023F0010313600368194A934214D0143227
:10166C0093421FD0143293421ED0143293421ED098
:10167C00143293421ED01432934202D04FF0807237
:10168C0003E04FF4801200E001220E4B5A6001235C
:10169C0080F82130002380F82030436B6BB19847E1
:1016AC000020CDE71022F0E74FF48072EDE74FF405
:1016BC008052EAE74FF48032E7E70020C0E700BF32
:1016CC00080002400000024038B5C36B1A68046879
:1016DC002568016C04238B40134235D015F0040FA0
:1016EC0032D0236813F0200F03D1236823F00403B6
:1016FC0023600368434A934214D01432934218D0A7
:10170C001432934217D01432934217D014329342AE
:10171C0017D01432934202D04FF0806203E04FF4A2
:10172C00800200E00422384B5A60C36A03B1984728
:10173C0038BD4022F7E74FF48062F4E74FF4804263
:10174C00F1E74FF48022EEE702238B4013423CD0AA
:10175C0015F0020F39D0236813F0200F06D123683F
:10176C0023F00A032360012380F821300368254A03
:10177C00934214D0143293421CD0143293421BD097
:10178C00143293421BD0143293421BD01432934226
:10179C0002D04FF0007203E04FF4001200E002227E
:1017AC00194B5A60002380F82030836A002BBFD07D
:1017BC009847BDE72022F3E74FF40072F0E74FF4AF
:1017CC000052EDE74FF40032EAE7082303FA01F187
:1017DC001142ADD015F0080FAAD0236823F00E03E8
:1017EC002360026CC16B012303FA02F24A6083632B
:1017FC0080F82130002380F82030036B002B97D029
:10180C00984795E70800024000000240F0B482B00F
:10181C0000252C46A3E07F4FBB4210D007D97E4F4A
:10182C00BB420CD007F58037BB4208D013E0A7F5BC
:10183C008017BB4203D007F57027BB4207D18B68DA
:10184C00002B58D0012B51D04261082503E0A7F59D
:10185C008017BB42F3D0FF2E4FD88446FF2E4FD8B3
:10186C00A200DCF800300F27974023EA070305FAA3
:10187C0002F21343CCF800304B6813F0805F6DD04C
:10188C00664B9A6942F001029A619B6903F001036D
:10189C000193019BA208971C614B53F8273004F06D
:1018AC000307BF004FF00F0C0CFA07FC23EA0C0CDB
:1018BC005C4B98422AD003F58063984200F08A80F2
:1018CC0003F58063984200F0878003F580639842AB
:1018DC001AD004231BE0CD68BDE7CD680435BAE708
:1018EC00CD680835B7E7CD680C35B4E7026108253B
:1018FC00B1E70025AFE70425ADE700F1040CADE737
:10190C00A4F108029200ACE7032300E00023BB40E3
:10191C0043EA0C030232424F47F822304B6813F46F
:10192C00803F5BD0404A1368334313604B6813F419
:10193C00003F59D03C4A5368334353604B6813F40F
:10194C00801F57D0384A9368334393604B6813F425
:10195C00001F55D0344AD3681E43D66001340B683F
:10196C0033FA04F252D00122A24003EA020632EA10
:10197C000303F3D14B68122B3FF64DAF122B3FF6FE
:10198C006AAF01A757F823F04B180008E3180008BA
:10199C00ED180008FF180008631800086318000809
:1019AC00631800086318000863180008631800081F
:1019BC00631800086318000863180008631800080F
:1019CC00631800086318000863180008E71800087B
:1019DC00F318000801239AE7022398E7124A1368C8
:1019EC0023EA06031360A1E70F4A536823EA0603B0
:1019FC005360A3E70C4A936823EA06039360A5E7B8
:101A0C00094AD36823EA0606D660A7E702B0F0BC01
:101A1C00704700BF0000221000003110001002407F
:101A2C0000000140000801400004014082B0084B56
:101A3C001B68084AA2FB03235B0A00FB03F3019318
:101A4C0000BF019B5A1E0192002BF9D102B07047C6
:101A5C0034000020D34D6210002800F0F18170B5E5
:101A6C0082B00446036813F0010F2CD0AA4B5B68BC
:101A7C0003F00C03042B1DD0A74B5B6803F00C0385
:101A8C00082B12D06368B3F5803F41D0002B55D1A1
:101A9C0003F1804303F504331A6822F480321A6090
:101AAC001A6822F480221A6037E09B4B5B6813F4AF
:101ABC00803FE7D0984B1B6813F4003F03D063685A
:101ACC00002B00F0BF81236813F0020F75D0924BEE
:101ADC005B6813F00C0F5FD08F4B5B6803F00C034B
:101AEC00082B54D02369002B00F089808B4B0122EA
:101AFC001A60FFF771FC0546874B1B6813F0020F49
:101B0C0074D1FFF769FC401B0228F5D903209EE134
:101B1C00814A136843F480331360636843B3FFF75F
:101B2C005BFC05467C4B1B6813F4003FCBD1FFF7E5
:101B3C0053FC401B6428F5D9032088E1B3F5A02F92
:101B4C0009D0754B1A6822F480321A601A6822F494
:101B5C0080221A60E1E703F18043A3F53C331A6855
:101B6C0042F480221A601A6842F480321A60D4E778
:101B7C00FFF732FC0546684B1B6813F4003FA2D0FC
:101B8C00FFF72AFC401B6428F5D903205FE1624B68
:101B9C005B6813F4803FA5D15F4B1B6813F0020FF9
:101BAC0003D02369012B40F04F815B4A136823F06B
:101BBC00F803616943EAC1031360236813F0080F4B
:101BCC0032D0A369002B45D0554B01221A60FFF788
:101BDC0003FC0546504B5B6A13F0020F21D1FFF753
:101BEC00FBFB401B0228F5D9032030E14A4A13685D
:101BFC0023F0F803616943EAC1031360DDE7474B47
:101C0C0000221A60FFF7E8FB0546434B1B6813F0F4
:101C1C00020FD2D0FFF7E0FB401B0228F5D90320BE
:101C2C0015E10120FFF702FF236813F0040F00F009
:101C3C009780394BDB6913F0805F1DD1364BDA6925
:101C4C0042F08052DA61DB6903F080530193019B0F
:101C5C00012512E0324B00221A60FFF7BDFB05464E
:101C6C002D4B5B6A13F0020FDED0FFF7B5FB401B68
:101C7C000228F5D90320EAE000252A4B1B6813F44F
:101C8C00807F11D0E368012B22D0002B38D103F1D7
:101C9C00804303F504331A6A22F001021A621A6AAD
:101CAC0022F004021A6218E01E4A136843F480738F
:101CBC001360FFF791FB06461A4B1B6813F4807FE9
:101CCC00E0D1FFF789FB801B6428F5D90320BEE027
:101CDC00114A136A43F001031362E36873B3FFF70D
:101CEC007BFB06460C4B1B6A13F0020F37D1FFF738
:101CFC0073FB801B41F288339842F3D90320A6E092
:101D0C00052B11D0044B1A6A22F001021A621A6ACE
:101D1C0022F004021A62E0E7001002400000424286
:101D2C0080044242007000404D4B1A6A42F004029B
:101D3C001A621A6A42F001021A62CEE7FFF74CFBF4
:101D4C000646474B1B6A13F0020F08D0FFF744FB03
:101D5C00801B41F288339842F3D9032077E0E5B930
:101D6C00E369002B72D03E4A526802F00C02082A3A
:101D7C0056D0022B17D03B4B00221A60FFF72CFBDE
:101D8C000446374B1B6813F0007F47D0FFF724FB4A
:101D9C00001B0228F5D9032059E0314AD36923F0FE
:101DAC008053D361DCE72F4B00221A60FFF714FB42
:101DBC0005462B4B1B6813F0007F06D0FFF70CFB7E
:101DCC00401B0228F5D9032041E0236AB3F5803F7C
:101DDC001AD023494B6823F47413226A606A0243B5
:101DEC0013434B601F4B01221A60FFF7F5FA0446B0
:101DFC001B4B1B6813F0007F0ED1FFF7EDFA001B95
:101E0C000228F5D9032022E0154A536823F4003345
:101E1C00A1680B435360DCE7002018E0002016E0BB
:101E2C00012B16D00E4B5B6803F48031226A914271
:101E3C0011D103F47013626A93420ED1002006E0B4
:101E4C0001207047012002E0012000E0002002B0D8
:101E5C0070BD0120FBE70120F9E70120F7E700BF87
:101E6C00001002406000424286B0184B0FCB0DF1BF
:101E7C00180C0CE90F0040F20123ADF80430144BA0
:101E8C005A6802F00C03042B1AD0082B1AD1C2F397
:101E9C008343634413F8101C12F4803F0CD00C4B9A
:101EAC005B68C3F34043634413F8143C094800FBDC
:101EBC0001F0B0FBF3F006E0074800FB01F002E094
:101ECC00044800E0054806B0704700BFBC3300086A
:101EDC0000100240001BB70000093D0000127A0000
:101EEC00002800F0A08070B50D460446524B1B68CC
:101EFC0003F007038B420BD24F4A136823F00703FE
:101F0C000B431360136803F007038B4240F08D8082
:101F1C00236813F0020F17D013F0040F04D0474AB4
:101F2C00536843F4E0635360236813F0080F04D044
:101F3C00424A536843F460535360404A536823F059
:101F4C00F003A1680B435360236813F0010F31D0E9
:101F5C006368012B20D0022B25D0384A126812F06E
:101F6C00020F64D035494A6822F0030213434B60D8
:101F7C00FFF732FA0646314B5B6803F00C036268DC
:101F8C00B3EB820F16D0FFF727FA801B41F2883390
:101F9C009842F0D9032045E0284A126812F4003F19
:101FAC00E0D101203EE0254A126812F0007FD9D121
:101FBC00012037E0204B1B6803F00703AB420AD922
:101FCC001D4A136823F007032B431360136803F0B7
:101FDC000703AB422DD1236813F0040F06D0174A28
:101FEC00536823F4E063E1680B435360236813F0F8
:101FFC00080F07D0114A536823F46053216943EA50
:10200C00C1035360FFF730FF0C4B5B68C3F3031342
:10201C000B4AD35CD8400B4B18600B4B1868FFF77E
:10202C0097F9002070BD012070470120FAE70120CC
:10203C00F8E70120F6E700BF002002400010024044
:10204C00A43300083400002044000020014B186821
:10205C00704700BF3400002008B5FFF7F7FF044BB2
:10206C005B68C3F30223034AD35CD84008BD00BFAE
:10207C0000100240B433000808B5FFF7E7FF044B2B
:10208C005B68C3F3C223034AD35CD84008BD00BFCE
:10209C0000100240B433000870B4036A23F001034B
:1020AC000362036A4668826922F073020C6844EA90
:1020BC00020523F002028B6813430D4CA04209D099
:1020CC000B4CA0420DD0466085614A6842630362A6
:1020DC0070BC704723F00803CA68134323F0040351
:1020EC00EEE726F440764A6932438E691643EAE7F6
:1020FC00002C014030B4036A23F480730362036A3A
:10210C004568C26922F073020C68224323F4007301
:10211C008C6843EA04230F4CA04209D00D4CA0421A
:10212C000ED04560C2614A68C263036230BC70471E
:10213C0023F40063CC6843EA042323F48063EDE7C3
:10214C0025F440554C6945EA04158C6945EA04159B
:10215C00E7E700BF002C014030B4036A23F480533E
:10216C000362036A4468C26922F4E6420D6842EADB
:10217C00052223F400538D6843EA0533074DA8422A
:10218C0006D04460C2614A680264036230BC704786
:10219C0024F480444D6944EA8514F2E7002C014094
:1021AC0030B4036A056A25F001050562846924F0E0
:1021BC00F00444EA021423F00A030B438461036223
:1021CC0030BC704730B4056A25F01005056284698F
:1021DC00036A24F4704444EA023423F0A00343EA73
:1021EC0001138461036230BC7047836823F0700371
:1021FC000B4343F0070383607047000090F83D30B9
:10220C00DBB2012B27D1022380F83D300268D36862
:10221C0043F00103D3600368114A934210D0B3F129
:10222C00804F0DD0A2F59432934209D002F5806212
:10223C00934205D01A6842F001021A6000207047E0
:10224C009A6802F00702062A07D01A6842F00102C7
:10225C001A6000207047012070470020704700BFB3
:10226C00002C01400268D36823F00103D36003689B
:10227C00196A41F21112114208D1196A40F2444212
:10228C00114203D11A6822F001021A60012380F86E
:10229C003D300020704770477047704710B5446A56
:1022AC00636A83420ED0A36A834214D0E36A8342EA
:1022BC001AD0236B834220D02046FEF723FC002348
:1022CC00237710BD012323778369002BF4D10123DD
:1022DC0084F83E30F0E7022323778369002BEBD19F
:1022EC00012384F83F30E7E7042323778369002B2D
:1022FC00E2D1012384F84030DEE708232377836999
:10230C00002BD9D1012384F84130D5E7704710B5A3
:10231C00446A636A83420BD0A36A834210D0E36A97
:10232C00834210D0236B834204D10823237701E02E
:10233C00012323772046FFF7E9FF0023237710BD05
:10234C0002232377F6E704232377F3E7704710B5CE
:10235C00044603681A6912F0020F11D0DA6812F001
:10236C00020F0DD06FF002021A610123037703688C
:10237C009B6913F0030F70D0FFF78FFF00232377B7
:10238C0023681A6912F0040F12D0DA6812F0040FE5
:10239C000ED06FF004021A610223237723689B6925
:1023AC0013F4407F5FD02046FFF777FF002323779D
:1023BC0023681A6912F0080F12D0DA6812F0080FAD
:1023CC000ED06FF008021A61042323772368DB69AF
:1023DC0013F0030F4ED02046FFF75FFF0023237747
:1023EC0023681A6912F0100F12D0DA6812F0100F6D
:1023FC000ED06FF010021A61082323772368DB6973
:10240C0013F4407F3DD02046FFF747FF002323778E
:10241C0023681A6912F0010F03D0DA6812F0010F69
:10242C0036D123681A6912F0800F03D0DA6812F0E3
:10243C00800F34D123681A6912F0400F03D0DA6888
:10244C0012F0400F32D123681A6912F0200F03D01A
:10245C00DA6812F0200F30D110BDFFF71DFF2046B7
:10246C00FEF750FB8AE72046FFF716FF2046FEF7E3
:10247C0049FB9BE72046FFF70FFF2046FEF742FB88
:10248C00ACE72046FFF708FF2046FEF73BFBBDE715
:10249C006FF001021A612046FEF798FBC1E76FF05E
:1024AC0080021A61204600F0E3FBC3E76FF04002A4
:1024BC001A612046FFF74AFFC5E76FF020021A6148
:1024CC00204600F0D4FBC7E7704710B5446A636A36
:1024DC0083420CD0A36A834213D0E36A834216D0A2
:1024EC00236B834219D0012384F83D3003E0012390
:1024FC00237784F83E302046FFF7E6FF002323774E
:10250C0010BD02232377012384F83F30F3E7042323
:10251C002377012384F84030EDE708232377012348
:10252C0084F84130E7E7000003681B4A90420AD068
:10253C00B0F1804F07D0A2F59432904203D002F54F
:10254C008062904203D123F070034A681343124A0D
:10255C0090420AD0B0F1804F07D0A2F5943290424D
:10256C0003D002F58062904203D123F44073CA6811
:10257C00134323F080034A69134303608B68C362DF
:10258C000B688362044B984202D00123436170476D
:10259C000B690363F9E700BF002C014040B310B591
:1025AC00044690F83D30F3B1022384F83D302146C7
:1025BC0051F8040BFFF7B8FF012384F8463084F878
:1025CC003E3084F83F3084F8403084F8413084F851
:1025DC00423084F8433084F8443084F8453084F831
:1025EC003D30002010BD80F83C30FEF789FBDBE766
:1025FC000120704740B310B5044690F83D30F3B15C
:10260C00022384F83D30214651F8040BFFF78CFF70
:10261C00012384F8463084F83E3084F83F3084F847
:10262C00403084F8413084F8423084F8433084F8E8
:10263C00443084F8453084F83D30002010BD80F8DB
:10264C003C30FFF728FEDBE70120704730B4036A0B
:10265C0023F010030362036A4468826922F4E642A1
:10266C000D6842EA052223F020038D6843EA051326
:10267C000E4DA84209D00D4DA8420ED04460826187
:10268C004A688263036230BC704723F08003CD68D4
:10269C0043EA051323F04003EDE724F440644D694D
:1026AC0044EA85048D6944EA8504E7E7002C01407F
:1026BC0038B590F83C30012B60D004460D46012310
:1026CC0080F83C300C2A1AD8DFE802F007191919E7
:1026DC001D1919193119191944000068FFF7DCFC90
:1026EC002268936943F0080393612268936923F08D
:1026FC00040393612268936929690B439361002059
:10270C0084F83C0038BD0068FFF7A0FF226893698D
:10271C0043F4006393612268936923F480639361AB
:10272C0022689369296943EA01239361E7E700680A
:10273C00FFF7E0FC2268D36943F00803D3612268F9
:10274C00D36923F00403D3612268D36929690B434D
:10275C00D361D4E70068FFF7FFFC2268D36943F428
:10276C000063D3612268D36923F48063D361226848
:10277C00D369296943EA0123D361C0E70220C1E789
:10278C0010B4846824F47F4442EA03220A432243AF
:10279C00826010BC704790F83C30012B66D010B5AD
:1027AC000446012380F83C30022380F83D30026857
:1027BC00936823F47F4323F0770393600B68602BBB
:1027CC0040D022D8402B47D00BD9502B0ED1CA6801
:1027DC0049680068FFF7E4FC50212068FFF705FD0D
:1027EC0004E0202B0CD008D9302B09D0012384F81D
:1027FC003D30002084F83C0010BD0BB1102BF5D1FE
:10280C0019462068FFF7F1FCF0E7702B0ED0B3F5FA
:10281C00005FEBD1CB684A6889680068FFF7B0FFAE
:10282C002268936843F480439360DFE7CB684A687F
:10283C0089680068FFF7A4FF2268936843F0770368
:10284C009360D3E7CA6849680068FFF7BBFC602156
:10285C002068FFF7CAFCC9E7CA6849680068FFF737
:10286C009FFC40212068FFF7C0FCBFE702207047A7
:10287C0010B401F01F01012303FA01F4036A23EAE7
:10288C0004030362036A02FA01F10B43036210BCF6
:10289C007047000070B5044616460D4600292DD130
:1028AC0090F83E00C0B2022814BF0020012000287E
:1028BC0040F0F880002D3DD194F83E20D2B2012A90
:1028CC0014BF00220122002A00F0EE80002E4DD011
:1028DC00002D4FD1022284F83E200C2D70D8DFE859
:1028EC0015F059006F006F006F008D006F006F00C6
:1028FC006F00A4006F006F006F00BB00042909D0AB
:10290C0008290FD090F84100C0B2022814BF002053
:10291C000120CCE790F83F00C0B2022814BF002081
:10292C000120C4E790F84000C0B2022814BF002078
:10293C000120BCE7042D09D0082D0FD094F84120BC
:10294C00D2B2012A14BF00220122BCE794F83F2026
:10295C00D2B2012A14BF00220122B4E794F840201D
:10296C00D2B2012A14BF00220122ACE7002BAFD057
:10297C0001209AE0042D05D0082D07D0022284F8FE
:10298C004120AAE7022284F83F20A6E7022284F81D
:10299C004020A2E7626A4A499162626A4949D1625F
:1029AC00626A49491163226834323146606AFEF723
:1029BC00E3FD00287AD12268D36843F40073D36016
:1029CC00012229462068FFF753FF23683F4A9342B0
:1029DC0058D023683D4A934259D0B3F1804F56D01A
:1029EC00A2F59432934252D002F5806293424ED0BB
:1029FC001A6842F001021A60002056E0A26A3049BF
:102A0C009162A26A2F49D162A26A2F49116322688E
:102A1C0038323146A06AFEF7AFFD002848D1226853
:102A2C00D36843F48063D360CAE7E26A24499162B5
:102A3C00E26A2449D162E26A2349116322683C327A
:102A4C003146E06AFEF798FD002833D12268D3683E
:102A5C0043F40063D360B3E7226B19499162226B94
:102A6C001849D162226B18491163226840323146F1
:102A7C00206BFEF781FDF8B92268D36843F48053CC
:102A8C00D3609DE75A6C42F400425A64A1E79A68FD
:102A9C0002F00702062A11D01A6842F001021A60ED
:102AAC00002002E0022000E0012070BD0120FCE7C4
:102ABC000120FAE70120F8E70120F6E70020F4E70F
:102ACC00A92200081B230008D7240008002C014071
:102ADC0038B504460D460C2910D8DFE801F0070F75
:102AEC000F0F2E0F0F0F370F0F0F40000268D36818
:102AFC0023F40073D360406AFEF79AFD0022294646
:102B0C002068FFF7B5FE2368294A934230D023682A
:102B1C00196A41F21112114208D1196A40F2444269
:102B2C00114203D11A6822F001021A60002D2ED135
:102B3C00012384F83E30002038BD0268D36823F4AA
:102B4C008063D360806AFEF773FDD7E70268D368B1
:102B5C0023F40063D360C06AFEF76AFDCEE7026817
:102B6C00D36823F48053D360006BFEF761FDC5E797
:102B7C00196A41F211121142C9D1196A40F2444248
:102B8C001142C4D15A6C22F400425A64BFE7042D9E
:102B9C0005D0082D07D0012384F84130CBE7012361
:102BAC0084F83F30C7E7012384F84030C3E700BF07
:102BBC00002C014090F83C30012B2BD030B4012379
:102BCC0080F83C30022380F83D3003685C689D68D7
:102BDC0024F070040A6822435A6003680E4A934238
:102BEC000AD0B3F1804F07D0A2F59432934203D0B0
:102BFC0002F58062934204D125F080054A681543A2
:102C0C009D60012380F83D30002380F83C3018464D
:102C1C0030BC704702207047002C014090F83C30CB
:102C2C00012B22D0012380F83C30CB6823F4407375
:102C3C008A68134323F480634A68134323F40063C4
:102C4C000A68134323F480530A69134323F4005393
:102C5C004A69134323F48043CA69134302685364DB
:102C6C00002380F83C3018467047022070477047AC
:102C7C0070470268D36823F49073D3600268536979
:102C8C0023F001035361036B012B05D0202380F843
:102C9C003E300023036370470268D36823F01003AF
:102CAC00D360F3E790F83D30DBB2212B01D002204A
:102CBC0070478368B3F5805F17D0036A5A1C0262B1
:102CCC001A7803685A60C38C9BB2013B9BB2C384D5
:102CDC004BB90268D36823F08003D3600268D368D1
:102CEC0043F04003D360002070470369002BE4D10C
:102CFC00036A1B880268C3F308035360036A023338
:102D0C000362E0E710B504460268136923F44053EC
:102D1C00C1680B43136183680269134342691A4308
:102D2C000168CB6823F4B05323F00C031343CB603E
:102D3C000268536923F4407381690B435361026841
:102D4C00124B9A421FD0FFF787F900EB800303EB7D
:102D5C00830362689200B3FBF2F20D48A0FB0231D0
:102D6C004909642303FB11231B013233A0FB03230A
:102D7C005B0903F0F00202EB011203F00F03216870
:102D8C0013448B6010BDFFF777F9DEE70038014084
:102D9C001F85EB5158B310B5044690F83D300BB37A
:102DAC00242384F83D302268D36823F40053D36085
:102DBC002046FFF7A7FF2268136923F490431361A1
:102DCC002268536923F02A0353612268D36843F4C1
:102DDC000053D36000202064202384F83D3084F815
:102DEC003E3010BD80F83C30FEF76EFAD8E701207B
:102DFC007047704708B50168CA6822F04002CA6083
:102E0C00202280F83D20FFF7F4FF002008BD70471A
:102E1C0008B5406A0023C385C384FFF7F8FF08BDDB
:102E2C00704790F83E30DBB2222B60D18368B3F54B
:102E3C00805F46D0826AB3F5805F04D0002B4DD101
:102E4C000369002B4AD103685B681370836A0133F2
:102E5C008362C38D9BB2013B9BB2C385002B48D1CF
:102E6C0000B583B00268D36823F02003D3600268F6
:102E7C00D36823F48073D3600268536923F0010391
:102E8C005361202380F83E30036B012B2CD100239F
:102E9C0003630268D36823F01003D36003681A68D5
:102EAC0012F0100F06D0002201921A6801925B6892
:102EBC000193019B818DFFF7B3FF002003B05DF8F8
:102ECC0004FB0269002AB5D1826A03685B68C3F30C
:102EDC0008031380836A02338362BAE703685B6872
:102EEC0003F07F031370B1E7FEF7B8F9E5E70220B2
:102EFC00704700207047000030B583B0044602686C
:102F0C001368D068516913F00F0505D113F0200F29
:102F1C0002D010F0200F19D12DB111F0010119D1EF
:102F2C0010F4907F16D1216B012975D013F0800F0E
:102F3C0003D010F0800F40F0D78013F0400F03D077
:102F4C0010F0400F40F0D48003B030BD2046FFF7A6
:102F5C0068FFF9E713F0010F06D010F4807F03D05F
:102F6C00226C42F00102226413F0040F04D019B158
:102F7C00226C42F00202226413F0020F04D019B149
:102F8C00226C42F00402226413F0080F07D010F0F8
:102F9C00200F00D119B1226C42F008022264226C7D
:102FAC00002AD1D013F0200F02D010F0200F21D125
:102FBC0023685B6903F04003226C12F0080F00D108
:102FCC0023B32046FFF755FE23685A6912F0400FD1
:102FDC0018D05A6922F040025A61A36B73B1464A69
:102FEC005A63A06BFEF724FB0028ADD0A06B436B9B
:102FFC009847A9E72046FFF714FFD9E72046FFF7CB
:10300C0006FFA1E72046FFF702FF9DE72046FFF7EA
:10301C00FEFE0023236497E713F0100F86D010F008
:10302C00100F83D00023019313680193536801930D
:10303C00019B536913F0400F32D0A16B0B685B6896
:10304C009BB2002B80D0A08D98427FF67DAFE3859C
:10305C008B69202B08D1A18DE38D9BB2C91A89B243
:10306C002046FFF7DDFE6FE7D36823F48073D3604F
:10307C002268536923F0010353612268536923F0DA
:10308C0040035361202384F83E30002323632268DD
:10309C00D36823F01003D360A06BFEF7A7FADAE72E
:1030AC00A18DE38D9BB2C91A89B2E38D9BB2002B23
:1030BC003FF44AAF00293FF447AFD36823F4907331
:1030CC00D3602268536923F001035361202384F8F1
:1030DC003E30002323632268D36823F01003D360AF
:1030EC002046FFF79DFE2FE72046FFF7DBFD2BE781
:1030FC002046FFF77FFE27E71D2E0008034681625E
:10310C008285C28500201864222283F83E2083F831
:10311C003C001968CA6842F48072CA6019684A692E
:10312C0042F001024A611A68D36843F02003D3606D
:10313C00704708B590F83E30DBB2202B0DD171B141
:10314C007AB190F83C30012B0DD0012380F83C3043
:10315C0000230363FFF7D2FF00E0022008BD01202B
:10316C00FCE70120FAE70220F8E700000C480D49C3
:10317C000D4A002302E0D458C4500433C4188C42C6
:10318C00F9D30A4A0A4C002301E013600432A2422C
:10319C00FBD3FDF7B5FC00F00FF8FDF749FB7047CA
:1031AC000000002074040020E033000874040020A8
:1031BC005C1B0020FEE7000070B50D4E0D4D761B1C
:1031CC00B61006D0002455F8043B01349847A642AB
:1031DC00F9D1094E094D00F0D3F8761BB61006D084
:1031EC00002455F8043B01349847A642F9D170BD30
:1031FC00D4330008D4330008DC330008D43300087F
:10320C00F0B4860746D0541E002A3CD00346CAB2FE
:10321C0001E0013C37D303F8012B9D07F9D1032CB6
:10322C002AD9CDB245EA05250F2C45EA054534D9F6
:10323C00A4F1100222F00F0C03F1200716096744C9
:10324C0003F1100242E9045542E902551032BA4228
:10325C00F8D1721C14F00C0F03EB021204F00F06E1
:10326C0013D0331F23F003030433134442F8045BDD
:10327C009342FBD106F003042CB1CAB21C4403F8F0
:10328C00012B9C42FBD1F0BC704734461346002CFA
:10329C00F3D1F8E714460346C1E71A462646E0E7A1
:1032AC00024B13B1024800F005B870470000000053
:1032BC00CD320008002301461A46184600F01AB811
:1032CC0038B5084B084D5B1B9C1007D0043B1D44C4
:1032DC00013C55F804399847002CF9D1BDE8384029
:1032EC0000F054B8E0330008DC330008704700BF2E
:1032FC00704700BF2DE9F047DFF880A00646DAF8EA
:10330C00000098460F469146FFF7F0FF1A4B1B68DA
:10331C00D3F8484124B365681F2D26DC5EB96B1CBD
:10332C000235DAF80000636044F82570FFF7E0FF1F
:10333C000020BDE8F087012304EB8501C1F88890DB
:10334C00D4F88821AB401A43022EC4F88821C1F866
:10335C000881E4D1D4F88C211343C4F88C31DEE716
:10336C0003F5A674C3F84841D5E7DAF80000FFF777
:10337C00BFFF4FF0FF30DCE7D033000870040020B3
:10338C00F8B500BFF8BC08BC9E467047F8B500BF46
:08339C00F8BC08BC9E46704716
:1033A40000000000000000000102030406070809F1
:1033B40000000000010203040203040506070809D3
:1033C4000A0B0C0D0E0F1010000000004800002026
:0833D400AD32000831010008D0
:0433DC000D010008D7
:1033E00001000000000000010101000000000101D7
:1033F00001010100000101010001010101010100C1
:1034000000000101010100000000000101000000B6
:10341000030600000024F400500900205012002090
:103420000100000010000000000000003403002034
:103430009C030020040400200000000000000000A5
:10344000000000000000000000000000000000007C
:10345000000000000000000000000000000000006C
:10346000000000000000000000000000000000005C
:10347000000000000000000000000000000000004C
:10348000000000000000000000000000000000003C
:10349000000000000000000000000000000000002C
:1034A000000000000000000000000000000000001C
:1034B000000000000000000000000000000000000C
:1034C00000000000000000000000000000000000FC
:1034D00001000000000000000E33CDAB34126DE699
:1034E000ECDE05000B000000000000000000000002
:1034F00000000000000000000000000000000000CC
:1035000000000000000000000000000000000000BB
:1035100000000000000000000000000000000000AB
:10352000000000000000000000000000000000009B
:04385000381B002001
:040000050800317945
:00000001FF
